{"contracts/ChainVault.sol":{"ChainVault":{"abi":[{"inputs":[{"internalType":"address","name":"_brand","type":"address"},{"internalType":"address","name":"_creator","type":"address"},{"internalType":"uint256","name":"_payoutAmount","type":"uint256"},{"internalType":"string","name":"_campaignData","type":"string"}],"stateMutability":"nonpayable","type":"constructor"},{"anonymous":false,"inputs":[],"name":"CampaignCancelled","type":"event"},{"anonymous":false,"inputs":[{"indexed":true,"internalType":"address","name":"creator","type":"address"},{"indexed":false,"internalType":"uint256","name":"amount","type":"uint256"}],"name":"PaymentWithdrawn","type":"event"},{"anonymous":false,"inputs":[],"name":"PostVerified","type":"event"},{"anonymous":false,"inputs":[{"indexed":false,"internalType":"uint256","name":"amount","type":"uint256"}],"name":"VaultFunded","type":"event"},{"inputs":[],"name":"brand","outputs":[{"internalType":"address","name":"","type":"address"}],"stateMutability":"view","type":"function"},{"inputs":[],"name":"campaignData","outputs":[{"internalType":"string","name":"","type":"string"}],"stateMutability":"view","type":"function"},{"inputs":[],"name":"creator","outputs":[{"internalType":"address","name":"","type":"address"}],"stateMutability":"view","type":"function"},{"inputs":[],"name":"payoutAmount","outputs":[{"internalType":"uint256","name":"","type":"uint256"}],"stateMutability":"view","type":"function"},{"inputs":[],"name":"status","outputs":[{"internalType":"enum ChainVault.Status","name":"","type":"uint8"}],"stateMutability":"view","type":"function"}],"evm":{"bytecode":{"linkReferences":{},"object":"60806040523480156200001157600080fd5b5060405162000b8138038062000b8183398181016040528101906200003791906200033c565b836000806101000a81548173ffffffffffffffffffffffffffffffffffffffff021916908373ffffffffffffffffffffffffffffffffffffffff16021790555082600160006101000a81548173ffffffffffffffffffffffffffffffffffffffff021916908373ffffffffffffffffffffffffffffffffffffffff160217905550816002819055508060039081620000d091906200060e565b506000600460006101000a81548160ff02191690836003811115620000fa57620000f9620006f5565b5b02179055505050505062000724565b6000604051905090565b600080fd5b600080fd5b600073ffffffffffffffffffffffffffffffffffffffff82169050919050565b60006200014a826200011d565b9050919050565b6200015c816200013d565b81146200016857600080fd5b50565b6000815190506200017c8162000151565b92915050565b6000819050919050565b620001978162000182565b8114620001a357600080fd5b50565b600081519050620001b7816200018c565b92915050565b600080fd5b600080fd5b6000601f19601f8301169050919050565b7f4e487b7100000000000000000000000000000000000000000000000000000000600052604160045260246000fd5b6200021282620001c7565b810181811067ffffffffffffffff82111715620002345762000233620001d8565b5b80604052505050565b60006200024962000109565b905062000257828262000207565b919050565b600067ffffffffffffffff8211156200027a5762000279620001d8565b5b6200028582620001c7565b9050602081019050919050565b60005b83811015620002b257808201518184015260208101905062000295565b60008484015250505050565b6000620002d5620002cf846200025c565b6200023d565b905082815260208101848484011115620002f457620002f3620001c2565b5b6200030184828562000292565b509392505050565b600082601f830112620003215762000320620001bd565b5b815162000333848260208601620002be565b91505092915050565b6000806000806080858703121562000359576200035862000113565b5b600062000369878288016200016b565b94505060206200037c878288016200016b565b93505060406200038f87828801620001a6565b925050606085015167ffffffffffffffff811115620003b357620003b262000118565b5b620003c18782880162000309565b91505092959194509250565b600081519050919050565b7f4e487b7100000000000000000000000000000000000000000000000000000000600052602260045260246000fd5b600060028204905060018216806200042057607f821691505b602082108103620004365762000435620003d8565b5b50919050565b60008190508160005260206000209050919050565b60006020601f8301049050919050565b600082821b905092915050565b600060088302620004a07fffffffffffffffffffffffffffffffffffffffffffffffffffffffffffffffff8262000461565b620004ac868362000461565b95508019841693508086168417925050509392505050565b6000819050919050565b6000620004ef620004e9620004e38462000182565b620004c4565b62000182565b9050919050565b6000819050919050565b6200050b83620004ce565b620005236200051a82620004f6565b8484546200046e565b825550505050565b600090565b6200053a6200052b565b6200054781848462000500565b505050565b5b818110156200056f576200056360008262000530565b6001810190506200054d565b5050565b601f821115620005be5762000588816200043c565b620005938462000451565b81016020851015620005a3578190505b620005bb620005b28562000451565b8301826200054c565b50505b505050565b600082821c905092915050565b6000620005e360001984600802620005c3565b1980831691505092915050565b6000620005fe8383620005d0565b9150826002028217905092915050565b6200061982620003cd565b67ffffffffffffffff811115620006355762000634620001d8565b5b62000641825462000407565b6200064e82828562000573565b600060209050601f83116001811462000686576000841562000671578287015190505b6200067d8582620005f0565b865550620006ed565b601f19841662000696866200043c565b60005b82811015620006c05784890151825560018201915060208501945060208101905062000699565b86831015620006e05784890151620006dc601f891682620005d0565b8355505b6001600288020188555050505b505050505050565b7f4e487b7100000000000000000000000000000000000000000000000000000000600052602160045260246000fd5b61044d80620007346000396000f3fe608060405234801561001057600080fd5b50600436106100575760003560e01c806302d05d3f1461005c578063200d2ed21461007a5780632d9fff01146100985780636b46c8c3146100b6578063edd5271e146100d4575b600080fd5b6100646100f2565b6040516100719190610224565b60405180910390f35b610082610118565b60405161008f91906102b6565b60405180910390f35b6100a061012b565b6040516100ad9190610224565b60405180910390f35b6100be61014f565b6040516100cb91906102ea565b60405180910390f35b6100dc610155565b6040516100e99190610395565b60405180910390f35b600160009054906101000a900473ffffffffffffffffffffffffffffffffffffffff1681565b600460009054906101000a900460ff1681565b60008054906101000a900473ffffffffffffffffffffffffffffffffffffffff1681565b60025481565b60038054610162906103e6565b80601f016020809104026020016040519081016040528092919081815260200182805461018e906103e6565b80156101db5780601f106101b0576101008083540402835291602001916101db565b820191906000526020600020905b8154815290600101906020018083116101be57829003601f168201915b505050505081565b600073ffffffffffffffffffffffffffffffffffffffff82169050919050565b600061020e826101e3565b9050919050565b61021e81610203565b82525050565b60006020820190506102396000830184610215565b92915050565b7f4e487b7100000000000000000000000000000000000000000000000000000000600052602160045260246000fd5b6004811061027f5761027e61023f565b5b50565b60008190506102908261026e565b919050565b60006102a082610282565b9050919050565b6102b081610295565b82525050565b60006020820190506102cb60008301846102a7565b92915050565b6000819050919050565b6102e4816102d1565b82525050565b60006020820190506102ff60008301846102db565b92915050565b600081519050919050565b600082825260208201905092915050565b60005b8381101561033f578082015181840152602081019050610324565b60008484015250505050565b6000601f19601f8301169050919050565b600061036782610305565b6103718185610310565b9350610381818560208601610321565b61038a8161034b565b840191505092915050565b600060208201905081810360008301526103af818461035c565b905092915050565b7f4e487b7100000000000000000000000000000000000000000000000000000000600052602260045260246000fd5b600060028204905060018216806103fe57607f821691505b602082108103610411576104106103b7565b5b5091905056fea2646970667358221220f97521a6a05a5766e21f0fe70cbd2acd4f508956e0ca66183c7b358a7b80f22164736f6c63430008140033","opcodes":"PUSH1 0x80 PUSH1 0x40 MSTORE CALLVALUE DUP1 ISZERO PUSH3 0x11 JUMPI PUSH1 0x0 DUP1 REVERT JUMPDEST POP PUSH1 0x40 MLOAD PUSH3 0xB81 CODESIZE SUB DUP1 PUSH3 0xB81 DUP4 CODECOPY DUP2 DUP2 ADD PUSH1 0x40 MSTORE DUP2 ADD SWAP1 PUSH3 0x37 SWAP2 SWAP1 PUSH3 0x33C JUMP JUMPDEST DUP4 PUSH1 0x0 DUP1 PUSH2 0x100 EXP DUP2 SLOAD DUP2 PUSH20 0xFFFFFFFFFFFFFFFFFFFFFFFFFFFFFFFFFFFFFFFF MUL NOT AND SWAP1 DUP4 PUSH20 0xFFFFFFFFFFFFFFFFFFFFFFFFFFFFFFFFFFFFFFFF AND MUL OR SWAP1 SSTORE POP DUP3 PUSH1 0x1 PUSH1 0x0 PUSH2 0x100 EXP DUP2 SLOAD DUP2 PUSH20 0xFFFFFFFFFFFFFFFFFFFFFFFFFFFFFFFFFFFFFFFF MUL NOT AND SWAP1 DUP4 PUSH20 0xFFFFFFFFFFFFFFFFFFFFFFFFFFFFFFFFFFFFFFFF AND MUL OR SWAP1 SSTORE POP DUP2 PUSH1 0x2 DUP2 SWAP1 SSTORE POP DUP1 PUSH1 0x3 SWAP1 DUP2 PUSH3 0xD0 SWAP2 SWAP1 PUSH3 0x60E JUMP JUMPDEST POP PUSH1 0x0 PUSH1 0x4 PUSH1 0x0 PUSH2 0x100 EXP DUP2 SLOAD DUP2 PUSH1 0xFF MUL NOT AND SWAP1 DUP4 PUSH1 0x3 DUP2 GT ISZERO PUSH3 0xFA JUMPI PUSH3 0xF9 PUSH3 0x6F5 JUMP JUMPDEST JUMPDEST MUL OR SWAP1 SSTORE POP POP POP POP POP PUSH3 0x724 JUMP JUMPDEST PUSH1 0x0 PUSH1 0x40 MLOAD SWAP1 POP SWAP1 JUMP JUMPDEST PUSH1 0x0 DUP1 REVERT JUMPDEST PUSH1 0x0 DUP1 REVERT JUMPDEST PUSH1 0x0 PUSH20 0xFFFFFFFFFFFFFFFFFFFFFFFFFFFFFFFFFFFFFFFF DUP3 AND SWAP1 POP SWAP2 SWAP1 POP JUMP JUMPDEST PUSH1 0x0 PUSH3 0x14A DUP3 PUSH3 0x11D JUMP JUMPDEST SWAP1 POP SWAP2 SWAP1 POP JUMP JUMPDEST PUSH3 0x15C DUP2 PUSH3 0x13D JUMP JUMPDEST DUP2 EQ PUSH3 0x168 JUMPI PUSH1 0x0 DUP1 REVERT JUMPDEST POP JUMP JUMPDEST PUSH1 0x0 DUP2 MLOAD SWAP1 POP PUSH3 0x17C DUP2 PUSH3 0x151 JUMP JUMPDEST SWAP3 SWAP2 POP POP JUMP JUMPDEST PUSH1 0x0 DUP2 SWAP1 POP SWAP2 SWAP1 POP JUMP JUMPDEST PUSH3 0x197 DUP2 PUSH3 0x182 JUMP JUMPDEST DUP2 EQ PUSH3 0x1A3 JUMPI PUSH1 0x0 DUP1 REVERT JUMPDEST POP JUMP JUMPDEST PUSH1 0x0 DUP2 MLOAD SWAP1 POP PUSH3 0x1B7 DUP2 PUSH3 0x18C JUMP JUMPDEST SWAP3 SWAP2 POP POP JUMP JUMPDEST PUSH1 0x0 DUP1 REVERT JUMPDEST PUSH1 0x0 DUP1 REVERT JUMPDEST PUSH1 0x0 PUSH1 0x1F NOT PUSH1 0x1F DUP4 ADD AND SWAP1 POP SWAP2 SWAP1 POP JUMP JUMPDEST PUSH32 0x4E487B7100000000000000000000000000000000000000000000000000000000 PUSH1 0x0 MSTORE PUSH1 0x41 PUSH1 0x4 MSTORE PUSH1 0x24 PUSH1 0x0 REVERT JUMPDEST PUSH3 0x212 DUP3 PUSH3 0x1C7 JUMP JUMPDEST DUP2 ADD DUP2 DUP2 LT PUSH8 0xFFFFFFFFFFFFFFFF DUP3 GT OR ISZERO PUSH3 0x234 JUMPI PUSH3 0x233 PUSH3 0x1D8 JUMP JUMPDEST JUMPDEST DUP1 PUSH1 0x40 MSTORE POP POP POP JUMP JUMPDEST PUSH1 0x0 PUSH3 0x249 PUSH3 0x109 JUMP JUMPDEST SWAP1 POP PUSH3 0x257 DUP3 DUP3 PUSH3 0x207 JUMP JUMPDEST SWAP2 SWAP1 POP JUMP JUMPDEST PUSH1 0x0 PUSH8 0xFFFFFFFFFFFFFFFF DUP3 GT ISZERO PUSH3 0x27A JUMPI PUSH3 0x279 PUSH3 0x1D8 JUMP JUMPDEST JUMPDEST PUSH3 0x285 DUP3 PUSH3 0x1C7 JUMP JUMPDEST SWAP1 POP PUSH1 0x20 DUP2 ADD SWAP1 POP SWAP2 SWAP1 POP JUMP JUMPDEST PUSH1 0x0 JUMPDEST DUP4 DUP2 LT ISZERO PUSH3 0x2B2 JUMPI DUP1 DUP3 ADD MLOAD DUP2 DUP5 ADD MSTORE PUSH1 0x20 DUP2 ADD SWAP1 POP PUSH3 0x295 JUMP JUMPDEST PUSH1 0x0 DUP5 DUP5 ADD MSTORE POP POP POP POP JUMP JUMPDEST PUSH1 0x0 PUSH3 0x2D5 PUSH3 0x2CF DUP5 PUSH3 0x25C JUMP JUMPDEST PUSH3 0x23D JUMP JUMPDEST SWAP1 POP DUP3 DUP2 MSTORE PUSH1 0x20 DUP2 ADD DUP5 DUP5 DUP5 ADD GT ISZERO PUSH3 0x2F4 JUMPI PUSH3 0x2F3 PUSH3 0x1C2 JUMP JUMPDEST JUMPDEST PUSH3 0x301 DUP5 DUP3 DUP6 PUSH3 0x292 JUMP JUMPDEST POP SWAP4 SWAP3 POP POP POP JUMP JUMPDEST PUSH1 0x0 DUP3 PUSH1 0x1F DUP4 ADD SLT PUSH3 0x321 JUMPI PUSH3 0x320 PUSH3 0x1BD JUMP JUMPDEST JUMPDEST DUP2 MLOAD PUSH3 0x333 DUP5 DUP3 PUSH1 0x20 DUP7 ADD PUSH3 0x2BE JUMP JUMPDEST SWAP2 POP POP SWAP3 SWAP2 POP POP JUMP JUMPDEST PUSH1 0x0 DUP1 PUSH1 0x0 DUP1 PUSH1 0x80 DUP6 DUP8 SUB SLT ISZERO PUSH3 0x359 JUMPI PUSH3 0x358 PUSH3 0x113 JUMP JUMPDEST JUMPDEST PUSH1 0x0 PUSH3 0x369 DUP8 DUP3 DUP9 ADD PUSH3 0x16B JUMP JUMPDEST SWAP5 POP POP PUSH1 0x20 PUSH3 0x37C DUP8 DUP3 DUP9 ADD PUSH3 0x16B JUMP JUMPDEST SWAP4 POP POP PUSH1 0x40 PUSH3 0x38F DUP8 DUP3 DUP9 ADD PUSH3 0x1A6 JUMP JUMPDEST SWAP3 POP POP PUSH1 0x60 DUP6 ADD MLOAD PUSH8 0xFFFFFFFFFFFFFFFF DUP2 GT ISZERO PUSH3 0x3B3 JUMPI PUSH3 0x3B2 PUSH3 0x118 JUMP JUMPDEST JUMPDEST PUSH3 0x3C1 DUP8 DUP3 DUP9 ADD PUSH3 0x309 JUMP JUMPDEST SWAP2 POP POP SWAP3 SWAP6 SWAP2 SWAP5 POP SWAP3 POP JUMP JUMPDEST PUSH1 0x0 DUP2 MLOAD SWAP1 POP SWAP2 SWAP1 POP JUMP JUMPDEST PUSH32 0x4E487B7100000000000000000000000000000000000000000000000000000000 PUSH1 0x0 MSTORE PUSH1 0x22 PUSH1 0x4 MSTORE PUSH1 0x24 PUSH1 0x0 REVERT JUMPDEST PUSH1 0x0 PUSH1 0x2 DUP3 DIV SWAP1 POP PUSH1 0x1 DUP3 AND DUP1 PUSH3 0x420 JUMPI PUSH1 0x7F DUP3 AND SWAP2 POP JUMPDEST PUSH1 0x20 DUP3 LT DUP2 SUB PUSH3 0x436 JUMPI PUSH3 0x435 PUSH3 0x3D8 JUMP JUMPDEST JUMPDEST POP SWAP2 SWAP1 POP JUMP JUMPDEST PUSH1 0x0 DUP2 SWAP1 POP DUP2 PUSH1 0x0 MSTORE PUSH1 0x20 PUSH1 0x0 KECCAK256 SWAP1 POP SWAP2 SWAP1 POP JUMP JUMPDEST PUSH1 0x0 PUSH1 0x20 PUSH1 0x1F DUP4 ADD DIV SWAP1 POP SWAP2 SWAP1 POP JUMP JUMPDEST PUSH1 0x0 DUP3 DUP3 SHL SWAP1 POP SWAP3 SWAP2 POP POP JUMP JUMPDEST PUSH1 0x0 PUSH1 0x8 DUP4 MUL PUSH3 0x4A0 PUSH32 0xFFFFFFFFFFFFFFFFFFFFFFFFFFFFFFFFFFFFFFFFFFFFFFFFFFFFFFFFFFFFFFFF DUP3 PUSH3 0x461 JUMP JUMPDEST PUSH3 0x4AC DUP7 DUP4 PUSH3 0x461 JUMP JUMPDEST SWAP6 POP DUP1 NOT DUP5 AND SWAP4 POP DUP1 DUP7 AND DUP5 OR SWAP3 POP POP POP SWAP4 SWAP3 POP POP POP JUMP JUMPDEST PUSH1 0x0 DUP2 SWAP1 POP SWAP2 SWAP1 POP JUMP JUMPDEST PUSH1 0x0 PUSH3 0x4EF PUSH3 0x4E9 PUSH3 0x4E3 DUP5 PUSH3 0x182 JUMP JUMPDEST PUSH3 0x4C4 JUMP JUMPDEST PUSH3 0x182 JUMP JUMPDEST SWAP1 POP SWAP2 SWAP1 POP JUMP JUMPDEST PUSH1 0x0 DUP2 SWAP1 POP SWAP2 SWAP1 POP JUMP JUMPDEST PUSH3 0x50B DUP4 PUSH3 0x4CE JUMP JUMPDEST PUSH3 0x523 PUSH3 0x51A DUP3 PUSH3 0x4F6 JUMP JUMPDEST DUP5 DUP5 SLOAD PUSH3 0x46E JUMP JUMPDEST DUP3 SSTORE POP POP POP POP JUMP JUMPDEST PUSH1 0x0 SWAP1 JUMP JUMPDEST PUSH3 0x53A PUSH3 0x52B JUMP JUMPDEST PUSH3 0x547 DUP2 DUP5 DUP5 PUSH3 0x500 JUMP JUMPDEST POP POP POP JUMP JUMPDEST JUMPDEST DUP2 DUP2 LT ISZERO PUSH3 0x56F JUMPI PUSH3 0x563 PUSH1 0x0 DUP3 PUSH3 0x530 JUMP JUMPDEST PUSH1 0x1 DUP2 ADD SWAP1 POP PUSH3 0x54D JUMP JUMPDEST POP POP JUMP JUMPDEST PUSH1 0x1F DUP3 GT ISZERO PUSH3 0x5BE JUMPI PUSH3 0x588 DUP2 PUSH3 0x43C JUMP JUMPDEST PUSH3 0x593 DUP5 PUSH3 0x451 JUMP JUMPDEST DUP2 ADD PUSH1 0x20 DUP6 LT ISZERO PUSH3 0x5A3 JUMPI DUP2 SWAP1 POP JUMPDEST PUSH3 0x5BB PUSH3 0x5B2 DUP6 PUSH3 0x451 JUMP JUMPDEST DUP4 ADD DUP3 PUSH3 0x54C JUMP JUMPDEST POP POP JUMPDEST POP POP POP JUMP JUMPDEST PUSH1 0x0 DUP3 DUP3 SHR SWAP1 POP SWAP3 SWAP2 POP POP JUMP JUMPDEST PUSH1 0x0 PUSH3 0x5E3 PUSH1 0x0 NOT DUP5 PUSH1 0x8 MUL PUSH3 0x5C3 JUMP JUMPDEST NOT DUP1 DUP4 AND SWAP2 POP POP SWAP3 SWAP2 POP POP JUMP JUMPDEST PUSH1 0x0 PUSH3 0x5FE DUP4 DUP4 PUSH3 0x5D0 JUMP JUMPDEST SWAP2 POP DUP3 PUSH1 0x2 MUL DUP3 OR SWAP1 POP SWAP3 SWAP2 POP POP JUMP JUMPDEST PUSH3 0x619 DUP3 PUSH3 0x3CD JUMP JUMPDEST PUSH8 0xFFFFFFFFFFFFFFFF DUP2 GT ISZERO PUSH3 0x635 JUMPI PUSH3 0x634 PUSH3 0x1D8 JUMP JUMPDEST JUMPDEST PUSH3 0x641 DUP3 SLOAD PUSH3 0x407 JUMP JUMPDEST PUSH3 0x64E DUP3 DUP3 DUP6 PUSH3 0x573 JUMP JUMPDEST PUSH1 0x0 PUSH1 0x20 SWAP1 POP PUSH1 0x1F DUP4 GT PUSH1 0x1 DUP2 EQ PUSH3 0x686 JUMPI PUSH1 0x0 DUP5 ISZERO PUSH3 0x671 JUMPI DUP3 DUP8 ADD MLOAD SWAP1 POP JUMPDEST PUSH3 0x67D DUP6 DUP3 PUSH3 0x5F0 JUMP JUMPDEST DUP7 SSTORE POP PUSH3 0x6ED JUMP JUMPDEST PUSH1 0x1F NOT DUP5 AND PUSH3 0x696 DUP7 PUSH3 0x43C JUMP JUMPDEST PUSH1 0x0 JUMPDEST DUP3 DUP2 LT ISZERO PUSH3 0x6C0 JUMPI DUP5 DUP10 ADD MLOAD DUP3 SSTORE PUSH1 0x1 DUP3 ADD SWAP2 POP PUSH1 0x20 DUP6 ADD SWAP5 POP PUSH1 0x20 DUP2 ADD SWAP1 POP PUSH3 0x699 JUMP JUMPDEST DUP7 DUP4 LT ISZERO PUSH3 0x6E0 JUMPI DUP5 DUP10 ADD MLOAD PUSH3 0x6DC PUSH1 0x1F DUP10 AND DUP3 PUSH3 0x5D0 JUMP JUMPDEST DUP4 SSTORE POP JUMPDEST PUSH1 0x1 PUSH1 0x2 DUP9 MUL ADD DUP9 SSTORE POP POP POP JUMPDEST POP POP POP POP POP POP JUMP JUMPDEST PUSH32 0x4E487B7100000000000000000000000000000000000000000000000000000000 PUSH1 0x0 MSTORE PUSH1 0x21 PUSH1 0x4 MSTORE PUSH1 0x24 PUSH1 0x0 REVERT JUMPDEST PUSH2 0x44D DUP1 PUSH3 0x734 PUSH1 0x0 CODECOPY PUSH1 0x0 RETURN INVALID PUSH1 0x80 PUSH1 0x40 MSTORE CALLVALUE DUP1 ISZERO PUSH2 0x10 JUMPI PUSH1 0x0 DUP1 REVERT JUMPDEST POP PUSH1 0x4 CALLDATASIZE LT PUSH2 0x57 JUMPI PUSH1 0x0 CALLDATALOAD PUSH1 0xE0 SHR DUP1 PUSH4 0x2D05D3F EQ PUSH2 0x5C JUMPI DUP1 PUSH4 0x200D2ED2 EQ PUSH2 0x7A JUMPI DUP1 PUSH4 0x2D9FFF01 EQ PUSH2 0x98 JUMPI DUP1 PUSH4 0x6B46C8C3 EQ PUSH2 0xB6 JUMPI DUP1 PUSH4 0xEDD5271E EQ PUSH2 0xD4 JUMPI JUMPDEST PUSH1 0x0 DUP1 REVERT JUMPDEST PUSH2 0x64 PUSH2 0xF2 JUMP JUMPDEST PUSH1 0x40 MLOAD PUSH2 0x71 SWAP2 SWAP1 PUSH2 0x224 JUMP JUMPDEST PUSH1 0x40 MLOAD DUP1 SWAP2 SUB SWAP1 RETURN JUMPDEST PUSH2 0x82 PUSH2 0x118 JUMP JUMPDEST PUSH1 0x40 MLOAD PUSH2 0x8F SWAP2 SWAP1 PUSH2 0x2B6 JUMP JUMPDEST PUSH1 0x40 MLOAD DUP1 SWAP2 SUB SWAP1 RETURN JUMPDEST PUSH2 0xA0 PUSH2 0x12B JUMP JUMPDEST PUSH1 0x40 MLOAD PUSH2 0xAD SWAP2 SWAP1 PUSH2 0x224 JUMP JUMPDEST PUSH1 0x40 MLOAD DUP1 SWAP2 SUB SWAP1 RETURN JUMPDEST PUSH2 0xBE PUSH2 0x14F JUMP JUMPDEST PUSH1 0x40 MLOAD PUSH2 0xCB SWAP2 SWAP1 PUSH2 0x2EA JUMP JUMPDEST PUSH1 0x40 MLOAD DUP1 SWAP2 SUB SWAP1 RETURN JUMPDEST PUSH2 0xDC PUSH2 0x155 JUMP JUMPDEST PUSH1 0x40 MLOAD PUSH2 0xE9 SWAP2 SWAP1 PUSH2 0x395 JUMP JUMPDEST PUSH1 0x40 MLOAD DUP1 SWAP2 SUB SWAP1 RETURN JUMPDEST PUSH1 0x1 PUSH1 0x0 SWAP1 SLOAD SWAP1 PUSH2 0x100 EXP SWAP1 DIV PUSH20 0xFFFFFFFFFFFFFFFFFFFFFFFFFFFFFFFFFFFFFFFF AND DUP2 JUMP JUMPDEST PUSH1 0x4 PUSH1 0x0 SWAP1 SLOAD SWAP1 PUSH2 0x100 EXP SWAP1 DIV PUSH1 0xFF AND DUP2 JUMP JUMPDEST PUSH1 0x0 DUP1 SLOAD SWAP1 PUSH2 0x100 EXP SWAP1 DIV PUSH20 0xFFFFFFFFFFFFFFFFFFFFFFFFFFFFFFFFFFFFFFFF AND DUP2 JUMP JUMPDEST PUSH1 0x2 SLOAD DUP2 JUMP JUMPDEST PUSH1 0x3 DUP1 SLOAD PUSH2 0x162 SWAP1 PUSH2 0x3E6 JUMP JUMPDEST DUP1 PUSH1 0x1F ADD PUSH1 0x20 DUP1 SWAP2 DIV MUL PUSH1 0x20 ADD PUSH1 0x40 MLOAD SWAP1 DUP2 ADD PUSH1 0x40 MSTORE DUP1 SWAP3 SWAP2 SWAP1 DUP2 DUP2 MSTORE PUSH1 0x20 ADD DUP3 DUP1 SLOAD PUSH2 0x18E SWAP1 PUSH2 0x3E6 JUMP JUMPDEST DUP1 ISZERO PUSH2 0x1DB JUMPI DUP1 PUSH1 0x1F LT PUSH2 0x1B0 JUMPI PUSH2 0x100 DUP1 DUP4 SLOAD DIV MUL DUP4 MSTORE SWAP2 PUSH1 0x20 ADD SWAP2 PUSH2 0x1DB JUMP JUMPDEST DUP3 ADD SWAP2 SWAP1 PUSH1 0x0 MSTORE PUSH1 0x20 PUSH1 0x0 KECCAK256 SWAP1 JUMPDEST DUP2 SLOAD DUP2 MSTORE SWAP1 PUSH1 0x1 ADD SWAP1 PUSH1 0x20 ADD DUP1 DUP4 GT PUSH2 0x1BE JUMPI DUP3 SWAP1 SUB PUSH1 0x1F AND DUP3 ADD SWAP2 JUMPDEST POP POP POP POP POP DUP2 JUMP JUMPDEST PUSH1 0x0 PUSH20 0xFFFFFFFFFFFFFFFFFFFFFFFFFFFFFFFFFFFFFFFF DUP3 AND SWAP1 POP SWAP2 SWAP1 POP JUMP JUMPDEST PUSH1 0x0 PUSH2 0x20E DUP3 PUSH2 0x1E3 JUMP JUMPDEST SWAP1 POP SWAP2 SWAP1 POP JUMP JUMPDEST PUSH2 0x21E DUP2 PUSH2 0x203 JUMP JUMPDEST DUP3 MSTORE POP POP JUMP JUMPDEST PUSH1 0x0 PUSH1 0x20 DUP3 ADD SWAP1 POP PUSH2 0x239 PUSH1 0x0 DUP4 ADD DUP5 PUSH2 0x215 JUMP JUMPDEST SWAP3 SWAP2 POP POP JUMP JUMPDEST PUSH32 0x4E487B7100000000000000000000000000000000000000000000000000000000 PUSH1 0x0 MSTORE PUSH1 0x21 PUSH1 0x4 MSTORE PUSH1 0x24 PUSH1 0x0 REVERT JUMPDEST PUSH1 0x4 DUP2 LT PUSH2 0x27F JUMPI PUSH2 0x27E PUSH2 0x23F JUMP JUMPDEST JUMPDEST POP JUMP JUMPDEST PUSH1 0x0 DUP2 SWAP1 POP PUSH2 0x290 DUP3 PUSH2 0x26E JUMP JUMPDEST SWAP2 SWAP1 POP JUMP JUMPDEST PUSH1 0x0 PUSH2 0x2A0 DUP3 PUSH2 0x282 JUMP JUMPDEST SWAP1 POP SWAP2 SWAP1 POP JUMP JUMPDEST PUSH2 0x2B0 DUP2 PUSH2 0x295 JUMP JUMPDEST DUP3 MSTORE POP POP JUMP JUMPDEST PUSH1 0x0 PUSH1 0x20 DUP3 ADD SWAP1 POP PUSH2 0x2CB PUSH1 0x0 DUP4 ADD DUP5 PUSH2 0x2A7 JUMP JUMPDEST SWAP3 SWAP2 POP POP JUMP JUMPDEST PUSH1 0x0 DUP2 SWAP1 POP SWAP2 SWAP1 POP JUMP JUMPDEST PUSH2 0x2E4 DUP2 PUSH2 0x2D1 JUMP JUMPDEST DUP3 MSTORE POP POP JUMP JUMPDEST PUSH1 0x0 PUSH1 0x20 DUP3 ADD SWAP1 POP PUSH2 0x2FF PUSH1 0x0 DUP4 ADD DUP5 PUSH2 0x2DB JUMP JUMPDEST SWAP3 SWAP2 POP POP JUMP JUMPDEST PUSH1 0x0 DUP2 MLOAD SWAP1 POP SWAP2 SWAP1 POP JUMP JUMPDEST PUSH1 0x0 DUP3 DUP3 MSTORE PUSH1 0x20 DUP3 ADD SWAP1 POP SWAP3 SWAP2 POP POP JUMP JUMPDEST PUSH1 0x0 JUMPDEST DUP4 DUP2 LT ISZERO PUSH2 0x33F JUMPI DUP1 DUP3 ADD MLOAD DUP2 DUP5 ADD MSTORE PUSH1 0x20 DUP2 ADD SWAP1 POP PUSH2 0x324 JUMP JUMPDEST PUSH1 0x0 DUP5 DUP5 ADD MSTORE POP POP POP POP JUMP JUMPDEST PUSH1 0x0 PUSH1 0x1F NOT PUSH1 0x1F DUP4 ADD AND SWAP1 POP SWAP2 SWAP1 POP JUMP JUMPDEST PUSH1 0x0 PUSH2 0x367 DUP3 PUSH2 0x305 JUMP JUMPDEST PUSH2 0x371 DUP2 DUP6 PUSH2 0x310 JUMP JUMPDEST SWAP4 POP PUSH2 0x381 DUP2 DUP6 PUSH1 0x20 DUP7 ADD PUSH2 0x321 JUMP JUMPDEST PUSH2 0x38A DUP2 PUSH2 0x34B JUMP JUMPDEST DUP5 ADD SWAP2 POP POP SWAP3 SWAP2 POP POP JUMP JUMPDEST PUSH1 0x0 PUSH1 0x20 DUP3 ADD SWAP1 POP DUP2 DUP2 SUB PUSH1 0x0 DUP4 ADD MSTORE PUSH2 0x3AF DUP2 DUP5 PUSH2 0x35C JUMP JUMPDEST SWAP1 POP SWAP3 SWAP2 POP POP JUMP JUMPDEST PUSH32 0x4E487B7100000000000000000000000000000000000000000000000000000000 PUSH1 0x0 MSTORE PUSH1 0x22 PUSH1 0x4 MSTORE PUSH1 0x24 PUSH1 0x0 REVERT JUMPDEST PUSH1 0x0 PUSH1 0x2 DUP3 DIV SWAP1 POP PUSH1 0x1 DUP3 AND DUP1 PUSH2 0x3FE JUMPI PUSH1 0x7F DUP3 AND SWAP2 POP JUMPDEST PUSH1 0x20 DUP3 LT DUP2 SUB PUSH2 0x411 JUMPI PUSH2 0x410 PUSH2 0x3B7 JUMP JUMPDEST JUMPDEST POP SWAP2 SWAP1 POP JUMP INVALID LOG2 PUSH5 0x6970667358 0x22 SLT KECCAK256 0xF9 PUSH22 0x21A6A05A5766E21F0FE70CBD2ACD4F508956E0CA6618 EXTCODECOPY PUSH28 0x358A7B80F22164736F6C634300081400330000000000000000000000 "},"methodIdentifiers":{"brand()":"2d9fff01","campaignData()":"edd5271e","creator()":"02d05d3f","payoutAmount()":"6b46c8c3","status()":"200d2ed2"}}}}}