{
  "_format": "hh-sol-artifact-1",
  "contractName": "ChainVault",
  "sourceName": "contracts/ChainVault.sol",
  "abi": [
    {
      "inputs": [
        {
          "internalType": "address",
          "name": "_brand",
          "type": "address"
        },
        {
          "internalType": "address",
          "name": "_creator",
          "type": "address"
        },
        {
          "internalType": "uint256",
          "name": "_payoutAmount",
          "type": "uint256"
        },
        {
          "internalType": "string",
          "name": "_campaignData",
          "type": "string"
        }
      ],
      "stateMutability": "nonpayable",
      "type": "constructor"
    },
    {
      "anonymous": false,
      "inputs": [],
      "name": "CampaignCancelled",
      "type": "event"
    },
    {
      "anonymous": false,
      "inputs": [
        {
          "indexed": true,
          "internalType": "address",
          "name": "creator",
          "type": "address"
        },
        {
          "indexed": false,
          "internalType": "uint256",
          "name": "amount",
          "type": "uint256"
        }
      ],
      "name": "PaymentWithdrawn",
      "type": "event"
    },
    {
      "anonymous": false,
      "inputs": [],
      "name": "PostVerified",
      "type": "event"
    },
    {
      "anonymous": false,
      "inputs": [
        {
          "indexed": false,
          "internalType": "uint256",
          "name": "amount",
          "type": "uint256"
        }
      ],
      "name": "VaultFunded",
      "type": "event"
    },
    {
      "inputs": [],
      "name": "brand",
      "outputs": [
        {
          "internalType": "address",
          "name": "",
          "type": "address"
        }
      ],
      "stateMutability": "view",
      "type": "function"
    },
    {
      "inputs": [],
      "name": "campaignData",
      "outputs": [
        {
          "internalType": "string",
          "name": "",
          "type": "string"
        }
      ],
      "stateMutability": "view",
      "type": "function"
    },
    {
      "inputs": [],
      "name": "creator",
      "outputs": [
        {
          "internalType": "address",
          "name": "",
          "type": "address"
        }
      ],
      "stateMutability": "view",
      "type": "function"
    },
    {
      "inputs": [],
      "name": "payoutAmount",
      "outputs": [
        {
          "internalType": "uint256",
          "name": "",
          "type": "uint256"
        }
      ],
      "stateMutability": "view",
      "type": "function"
    },
    {
      "inputs": [],
      "name": "status",
      "outputs": [
        {
          "internalType": "enum ChainVault.Status",
          "name": "",
          "type": "uint8"
        }
      ],
      "stateMutability": "view",
      "type": "function"
    }
  ],
  "bytecode": "0x60806040523480156200001157600080fd5b5060405162000b8138038062000b8183398181016040528101906200003791906200033c565b836000806101000a81548173ffffffffffffffffffffffffffffffffffffffff021916908373ffffffffffffffffffffffffffffffffffffffff16021790555082600160006101000a81548173ffffffffffffffffffffffffffffffffffffffff021916908373ffffffffffffffffffffffffffffffffffffffff160217905550816002819055508060039081620000d091906200060e565b506000600460006101000a81548160ff02191690836003811115620000fa57620000f9620006f5565b5b02179055505050505062000724565b6000604051905090565b600080fd5b600080fd5b600073ffffffffffffffffffffffffffffffffffffffff82169050919050565b60006200014a826200011d565b9050919050565b6200015c816200013d565b81146200016857600080fd5b50565b6000815190506200017c8162000151565b92915050565b6000819050919050565b620001978162000182565b8114620001a357600080fd5b50565b600081519050620001b7816200018c565b92915050565b600080fd5b600080fd5b6000601f19601f8301169050919050565b7f4e487b7100000000000000000000000000000000000000000000000000000000600052604160045260246000fd5b6200021282620001c7565b810181811067ffffffffffffffff82111715620002345762000233620001d8565b5b80604052505050565b60006200024962000109565b905062000257828262000207565b919050565b600067ffffffffffffffff8211156200027a5762000279620001d8565b5b6200028582620001c7565b9050602081019050919050565b60005b83811015620002b257808201518184015260208101905062000295565b60008484015250505050565b6000620002d5620002cf846200025c565b6200023d565b905082815260208101848484011115620002f457620002f3620001c2565b5b6200030184828562000292565b509392505050565b600082601f830112620003215762000320620001bd565b5b815162000333848260208601620002be565b91505092915050565b6000806000806080858703121562000359576200035862000113565b5b600062000369878288016200016b565b94505060206200037c878288016200016b565b93505060406200038f87828801620001a6565b925050606085015167ffffffffffffffff811115620003b357620003b262000118565b5b620003c18782880162000309565b91505092959194509250565b600081519050919050565b7f4e487b7100000000000000000000000000000000000000000000000000000000600052602260045260246000fd5b600060028204905060018216806200042057607f821691505b602082108103620004365762000435620003d8565b5b50919050565b60008190508160005260206000209050919050565b60006020601f8301049050919050565b600082821b905092915050565b600060088302620004a07fffffffffffffffffffffffffffffffffffffffffffffffffffffffffffffffff8262000461565b620004ac868362000461565b95508019841693508086168417925050509392505050565b6000819050919050565b6000620004ef620004e9620004e38462000182565b620004c4565b62000182565b9050919050565b6000819050919050565b6200050b83620004ce565b620005236200051a82620004f6565b8484546200046e565b825550505050565b600090565b6200053a6200052b565b6200054781848462000500565b505050565b5b818110156200056f576200056360008262000530565b6001810190506200054d565b5050565b601f821115620005be5762000588816200043c565b620005938462000451565b81016020851015620005a3578190505b620005bb620005b28562000451565b8301826200054c565b50505b505050565b600082821c905092915050565b6000620005e360001984600802620005c3565b1980831691505092915050565b6000620005fe8383620005d0565b9150826002028217905092915050565b6200061982620003cd565b67ffffffffffffffff811115620006355762000634620001d8565b5b62000641825462000407565b6200064e82828562000573565b600060209050601f83116001811462000686576000841562000671578287015190505b6200067d8582620005f0565b865550620006ed565b601f19841662000696866200043c565b60005b82811015620006c05784890151825560018201915060208501945060208101905062000699565b86831015620006e05784890151620006dc601f891682620005d0565b8355505b6001600288020188555050505b505050505050565b7f4e487b7100000000000000000000000000000000000000000000000000000000600052602160045260246000fd5b61044d80620007346000396000f3fe608060405234801561001057600080fd5b50600436106100575760003560e01c806302d05d3f1461005c578063200d2ed21461007a5780632d9fff01146100985780636b46c8c3146100b6578063edd5271e146100d4575b600080fd5b6100646100f2565b6040516100719190610224565b60405180910390f35b610082610118565b60405161008f91906102b6565b60405180910390f35b6100a061012b565b6040516100ad9190610224565b60405180910390f35b6100be61014f565b6040516100cb91906102ea565b60405180910390f35b6100dc610155565b6040516100e99190610395565b60405180910390f35b600160009054906101000a900473ffffffffffffffffffffffffffffffffffffffff1681565b600460009054906101000a900460ff1681565b60008054906101000a900473ffffffffffffffffffffffffffffffffffffffff1681565b60025481565b60038054610162906103e6565b80601f016020809104026020016040519081016040528092919081815260200182805461018e906103e6565b80156101db5780601f106101b0576101008083540402835291602001916101db565b820191906000526020600020905b8154815290600101906020018083116101be57829003601f168201915b505050505081565b600073ffffffffffffffffffffffffffffffffffffffff82169050919050565b600061020e826101e3565b9050919050565b61021e81610203565b82525050565b60006020820190506102396000830184610215565b92915050565b7f4e487b7100000000000000000000000000000000000000000000000000000000600052602160045260246000fd5b6004811061027f5761027e61023f565b5b50565b60008190506102908261026e565b919050565b60006102a082610282565b9050919050565b6102b081610295565b82525050565b60006020820190506102cb60008301846102a7565b92915050565b6000819050919050565b6102e4816102d1565b82525050565b60006020820190506102ff60008301846102db565b92915050565b600081519050919050565b600082825260208201905092915050565b60005b8381101561033f578082015181840152602081019050610324565b60008484015250505050565b6000601f19601f8301169050919050565b600061036782610305565b6103718185610310565b9350610381818560208601610321565b61038a8161034b565b840191505092915050565b600060208201905081810360008301526103af818461035c565b905092915050565b7f4e487b7100000000000000000000000000000000000000000000000000000000600052602260045260246000fd5b600060028204905060018216806103fe57607f821691505b602082108103610411576104106103b7565b5b5091905056fea2646970667358221220f97521a6a05a5766e21f0fe70cbd2acd4f508956e0ca66183c7b358a7b80f22164736f6c63430008140033",
  "linkReferences": {},
  "deployedLinkReferences": {}
}